{
  "_format": "hh-sol-artifact-1",
  "contractName": "Dappazon",
  "sourceName": "contracts/Dappazon.sol",
  "abi": [
    {
      "inputs": [],
      "stateMutability": "nonpayable",
      "type": "constructor"
    },
    {
      "anonymous": false,
      "inputs": [
        {
          "indexed": false,
          "internalType": "address",
          "name": "buyer",
          "type": "address"
        },
        {
          "indexed": false,
          "internalType": "uint256",
          "name": "count",
          "type": "uint256"
        },
        {
          "indexed": false,
          "internalType": "uint256",
          "name": "id",
          "type": "uint256"
        }
      ],
      "name": "Buy",
      "type": "event"
    },
    {
      "anonymous": false,
      "inputs": [
        {
          "indexed": false,
          "internalType": "string",
          "name": "name",
          "type": "string"
        },
        {
          "indexed": false,
          "internalType": "uint256",
          "name": "cost",
          "type": "uint256"
        },
        {
          "indexed": false,
          "internalType": "uint256",
          "name": "stock",
          "type": "uint256"
        }
      ],
      "name": "List",
      "type": "event"
    },
    {
      "inputs": [
        {
          "internalType": "uint256",
          "name": "_id",
          "type": "uint256"
        }
      ],
      "name": "buy",
      "outputs": [],
      "stateMutability": "payable",
      "type": "function"
    },
    {
      "inputs": [
        {
          "internalType": "uint256",
          "name": "",
          "type": "uint256"
        }
      ],
      "name": "items",
      "outputs": [
        {
          "internalType": "uint256",
          "name": "Id",
          "type": "uint256"
        },
        {
          "internalType": "string",
          "name": "name",
          "type": "string"
        },
        {
          "internalType": "string",
          "name": "category",
          "type": "string"
        },
        {
          "internalType": "string",
          "name": "image",
          "type": "string"
        },
        {
          "internalType": "uint256",
          "name": "cost",
          "type": "uint256"
        },
        {
          "internalType": "uint256",
          "name": "rating",
          "type": "uint256"
        },
        {
          "internalType": "uint256",
          "name": "stock",
          "type": "uint256"
        }
      ],
      "stateMutability": "view",
      "type": "function"
    },
    {
      "inputs": [
        {
          "internalType": "uint256",
          "name": "_id",
          "type": "uint256"
        },
        {
          "internalType": "string",
          "name": "_name",
          "type": "string"
        },
        {
          "internalType": "string",
          "name": "_category",
          "type": "string"
        },
        {
          "internalType": "string",
          "name": "_image",
          "type": "string"
        },
        {
          "internalType": "uint256",
          "name": "_cost",
          "type": "uint256"
        },
        {
          "internalType": "uint256",
          "name": "_rating",
          "type": "uint256"
        },
        {
          "internalType": "uint256",
          "name": "_stock",
          "type": "uint256"
        }
      ],
      "name": "list",
      "outputs": [],
      "stateMutability": "nonpayable",
      "type": "function"
    },
    {
      "inputs": [
        {
          "internalType": "address",
          "name": "",
          "type": "address"
        }
      ],
      "name": "orderCount",
      "outputs": [
        {
          "internalType": "uint256",
          "name": "",
          "type": "uint256"
        }
      ],
      "stateMutability": "view",
      "type": "function"
    },
    {
      "inputs": [
        {
          "internalType": "address",
          "name": "",
          "type": "address"
        },
        {
          "internalType": "uint256",
          "name": "",
          "type": "uint256"
        }
      ],
      "name": "orders",
      "outputs": [
        {
          "internalType": "uint256",
          "name": "time",
          "type": "uint256"
        },
        {
          "components": [
            {
              "internalType": "uint256",
              "name": "Id",
              "type": "uint256"
            },
            {
              "internalType": "string",
              "name": "name",
              "type": "string"
            },
            {
              "internalType": "string",
              "name": "category",
              "type": "string"
            },
            {
              "internalType": "string",
              "name": "image",
              "type": "string"
            },
            {
              "internalType": "uint256",
              "name": "cost",
              "type": "uint256"
            },
            {
              "internalType": "uint256",
              "name": "rating",
              "type": "uint256"
            },
            {
              "internalType": "uint256",
              "name": "stock",
              "type": "uint256"
            }
          ],
          "internalType": "struct Dappazon.Item",
          "name": "item",
          "type": "tuple"
        }
      ],
      "stateMutability": "view",
      "type": "function"
    },
    {
      "inputs": [],
      "name": "owner",
      "outputs": [
        {
          "internalType": "address",
          "name": "",
          "type": "address"
        }
      ],
      "stateMutability": "view",
      "type": "function"
    },
    {
      "inputs": [],
      "name": "withdraw",
      "outputs": [],
      "stateMutability": "nonpayable",
      "type": "function"
    }
  ],
  "bytecode": "0x608060405234801561001057600080fd5b50336000806101000a81548173ffffffffffffffffffffffffffffffffffffffff021916908373ffffffffffffffffffffffffffffffffffffffff16021790555061177a806100606000396000f3fe6080604052600436106100705760003560e01c80638da5cb5b1161004e5780638da5cb5b14610107578063bfb231d214610132578063d96a094a14610175578063eea8a7e81461019157610070565b80633ccfd60b14610075578063713d856b1461008c578063793b8c6d146100c9575b600080fd5b34801561008157600080fd5b5061008a6101ba565b005b34801561009857600080fd5b506100b360048036038101906100ae9190610cc6565b6102e2565b6040516100c09190610d0c565b60405180910390f35b3480156100d557600080fd5b506100f060048036038101906100eb9190610d53565b6102fa565b6040516100fe929190610edc565b60405180910390f35b34801561011357600080fd5b5061011c610513565b6040516101299190610f1b565b60405180910390f35b34801561013e57600080fd5b5061015960048036038101906101549190610f36565b610537565b60405161016c9796959493929190610fad565b60405180910390f35b61018f600480360381019061018a9190610f36565b610711565b005b34801561019d57600080fd5b506101b860048036038101906101b39190611166565b610ac9565b005b60008054906101000a900473ffffffffffffffffffffffffffffffffffffffff1673ffffffffffffffffffffffffffffffffffffffff163373ffffffffffffffffffffffffffffffffffffffff1614610248576040517f08c379a000000000000000000000000000000000000000000000000000000000815260040161023f906112ce565b60405180910390fd5b60008060009054906101000a900473ffffffffffffffffffffffffffffffffffffffff1673ffffffffffffffffffffffffffffffffffffffff164760405161028f90611345565b60006040518083038185875af1925050503d80600081146102cc576040519150601f19603f3d011682016040523d82523d6000602084013e6102d1565b606091505b50509050806102df57600080fd5b50565b60026020528060005260406000206000915090505481565b600360205281600052604060002060205280600052604060002060009150915050806000015490806001016040518060e00160405290816000820154815260200160018201805461034a90611389565b80601f016020809104026020016040519081016040528092919081815260200182805461037690611389565b80156103c35780601f10610398576101008083540402835291602001916103c3565b820191906000526020600020905b8154815290600101906020018083116103a657829003601f168201915b505050505081526020016002820180546103dc90611389565b80601f016020809104026020016040519081016040528092919081815260200182805461040890611389565b80156104555780601f1061042a57610100808354040283529160200191610455565b820191906000526020600020905b81548152906001019060200180831161043857829003601f168201915b5050505050815260200160038201805461046e90611389565b80601f016020809104026020016040519081016040528092919081815260200182805461049a90611389565b80156104e75780601f106104bc576101008083540402835291602001916104e7565b820191906000526020600020905b8154815290600101906020018083116104ca57829003601f168201915b505050505081526020016004820154815260200160058201548152602001600682015481525050905082565b60008054906101000a900473ffffffffffffffffffffffffffffffffffffffff1681565b600160205280600052604060002060009150905080600001549080600101805461056090611389565b80601f016020809104026020016040519081016040528092919081815260200182805461058c90611389565b80156105d95780601f106105ae576101008083540402835291602001916105d9565b820191906000526020600020905b8154815290600101906020018083116105bc57829003601f168201915b5050505050908060020180546105ee90611389565b80601f016020809104026020016040519081016040528092919081815260200182805461061a90611389565b80156106675780601f1061063c57610100808354040283529160200191610667565b820191906000526020600020905b81548152906001019060200180831161064a57829003601f168201915b50505050509080600301805461067c90611389565b80601f01602080910402602001604051908101604052809291908181526020018280546106a890611389565b80156106f55780601f106106ca576101008083540402835291602001916106f5565b820191906000526020600020905b8154815290600101906020018083116106d857829003601f168201915b5050505050908060040154908060050154908060060154905087565b6000600160008381526020019081526020016000206040518060e00160405290816000820154815260200160018201805461074b90611389565b80601f016020809104026020016040519081016040528092919081815260200182805461077790611389565b80156107c45780601f10610799576101008083540402835291602001916107c4565b820191906000526020600020905b8154815290600101906020018083116107a757829003601f168201915b505050505081526020016002820180546107dd90611389565b80601f016020809104026020016040519081016040528092919081815260200182805461080990611389565b80156108565780601f1061082b57610100808354040283529160200191610856565b820191906000526020600020905b81548152906001019060200180831161083957829003601f168201915b5050505050815260200160038201805461086f90611389565b80601f016020809104026020016040519081016040528092919081815260200182805461089b90611389565b80156108e85780601f106108bd576101008083540402835291602001916108e8565b820191906000526020600020905b8154815290600101906020018083116108cb57829003601f168201915b50505050508152602001600482015481526020016005820154815260200160068201548152505090506000604051806040016040528042815260200183815250905060006001600260003373ffffffffffffffffffffffffffffffffffffffff1673ffffffffffffffffffffffffffffffffffffffff168152602001908152602001600020600082825461097c91906113e9565b925050819055905081600360003373ffffffffffffffffffffffffffffffffffffffff1673ffffffffffffffffffffffffffffffffffffffff168152602001908152602001600020600083815260200190815260200160002060008201518160000155602082015181600101600082015181600001556020820151816001019081610a0791906115c9565b506040820151816002019081610a1d91906115c9565b506060820151816003019081610a3391906115c9565b506080820151816004015560a0820151816005015560c08201518160060155505090505060018060008681526020019081526020016000206006016000828254610a7d919061169b565b925050819055507f1cbc5ab135991bd2b6a4b034a04aa2aa086dac1371cb9b16b8b5e2ed6b036bed33828560000151604051610abb939291906116cf565b60405180910390a150505050565b60008054906101000a900473ffffffffffffffffffffffffffffffffffffffff1673ffffffffffffffffffffffffffffffffffffffff163373ffffffffffffffffffffffffffffffffffffffff1614610b57576040517f08c379a0000000000000000000000000000000000000000000000000000000008152600401610b4e906112ce565b60405180910390fd5b60006040518060e0016040528089815260200188815260200187815260200186815260200185815260200184815260200183815250905080600160008a8152602001908152602001600020600082015181600001556020820151816001019081610bc191906115c9565b506040820151816002019081610bd791906115c9565b506060820151816003019081610bed91906115c9565b506080820151816004015560a0820151816005015560c082015181600601559050507ffdbe2a012c10ec01592653978eaa09b5ca60b143a0e617505b2ebcbd911ec5b8878584604051610c4293929190611706565b60405180910390a15050505050505050565b6000604051905090565b600080fd5b600080fd5b600073ffffffffffffffffffffffffffffffffffffffff82169050919050565b6000610c9382610c68565b9050919050565b610ca381610c88565b8114610cae57600080fd5b50565b600081359050610cc081610c9a565b92915050565b600060208284031215610cdc57610cdb610c5e565b5b6000610cea84828501610cb1565b91505092915050565b6000819050919050565b610d0681610cf3565b82525050565b6000602082019050610d216000830184610cfd565b92915050565b610d3081610cf3565b8114610d3b57600080fd5b50565b600081359050610d4d81610d27565b92915050565b60008060408385031215610d6a57610d69610c5e565b5b6000610d7885828601610cb1565b9250506020610d8985828601610d3e565b9150509250929050565b610d9c81610cf3565b82525050565b600081519050919050565b600082825260208201905092915050565b60005b83811015610ddc578082015181840152602081019050610dc1565b60008484015250505050565b6000601f19601f8301169050919050565b6000610e0482610da2565b610e0e8185610dad565b9350610e1e818560208601610dbe565b610e2781610de8565b840191505092915050565b600060e083016000830151610e4a6000860182610d93565b5060208301518482036020860152610e628282610df9565b91505060408301518482036040860152610e7c8282610df9565b91505060608301518482036060860152610e968282610df9565b9150506080830151610eab6080860182610d93565b5060a0830151610ebe60a0860182610d93565b5060c0830151610ed160c0860182610d93565b508091505092915050565b6000604082019050610ef16000830185610cfd565b8181036020830152610f038184610e32565b90509392505050565b610f1581610c88565b82525050565b6000602082019050610f306000830184610f0c565b92915050565b600060208284031215610f4c57610f4b610c5e565b5b6000610f5a84828501610d3e565b91505092915050565b600082825260208201905092915050565b6000610f7f82610da2565b610f898185610f63565b9350610f99818560208601610dbe565b610fa281610de8565b840191505092915050565b600060e082019050610fc2600083018a610cfd565b8181036020830152610fd48189610f74565b90508181036040830152610fe88188610f74565b90508181036060830152610ffc8187610f74565b905061100b6080830186610cfd565b61101860a0830185610cfd565b61102560c0830184610cfd565b98975050505050505050565b600080fd5b600080fd5b7f4e487b7100000000000000000000000000000000000000000000000000000000600052604160045260246000fd5b61107382610de8565b810181811067ffffffffffffffff821117156110925761109161103b565b5b80604052505050565b60006110a5610c54565b90506110b1828261106a565b919050565b600067ffffffffffffffff8211156110d1576110d061103b565b5b6110da82610de8565b9050602081019050919050565b82818337600083830152505050565b6000611109611104846110b6565b61109b565b90508281526020810184848401111561112557611124611036565b5b6111308482856110e7565b509392505050565b600082601f83011261114d5761114c611031565b5b813561115d8482602086016110f6565b91505092915050565b600080600080600080600060e0888a03121561118557611184610c5e565b5b60006111938a828b01610d3e565b975050602088013567ffffffffffffffff8111156111b4576111b3610c63565b5b6111c08a828b01611138565b965050604088013567ffffffffffffffff8111156111e1576111e0610c63565b5b6111ed8a828b01611138565b955050606088013567ffffffffffffffff81111561120e5761120d610c63565b5b61121a8a828b01611138565b945050608061122b8a828b01610d3e565b93505060a061123c8a828b01610d3e565b92505060c061124d8a828b01610d3e565b91505092959891949750929550565b7f6f6e6c792074686520666f756e6465722063616e2063616c6c2074686973206660008201527f756e6374696f6e00000000000000000000000000000000000000000000000000602082015250565b60006112b8602783610f63565b91506112c38261125c565b604082019050919050565b600060208201905081810360008301526112e7816112ab565b9050919050565b600081905092915050565b7f2000000000000000000000000000000000000000000000000000000000000000600082015250565b600061132f6001836112ee565b915061133a826112f9565b600182019050919050565b600061135082611322565b9150819050919050565b7f4e487b7100000000000000000000000000000000000000000000000000000000600052602260045260246000fd5b600060028204905060018216806113a157607f821691505b6020821081036113b4576113b361135a565b5b50919050565b7f4e487b7100000000000000000000000000000000000000000000000000000000600052601160045260246000fd5b60006113f482610cf3565b91506113ff83610cf3565b9250828201905080821115611417576114166113ba565b5b92915050565b60008190508160005260206000209050919050565b60006020601f8301049050919050565b600082821b905092915050565b60006008830261147f7fffffffffffffffffffffffffffffffffffffffffffffffffffffffffffffffff82611442565b6114898683611442565b95508019841693508086168417925050509392505050565b6000819050919050565b60006114c66114c16114bc84610cf3565b6114a1565b610cf3565b9050919050565b6000819050919050565b6114e0836114ab565b6114f46114ec826114cd565b84845461144f565b825550505050565b600090565b6115096114fc565b6115148184846114d7565b505050565b5b818110156115385761152d600082611501565b60018101905061151a565b5050565b601f82111561157d5761154e8161141d565b61155784611432565b81016020851015611566578190505b61157a61157285611432565b830182611519565b50505b505050565b600082821c905092915050565b60006115a060001984600802611582565b1980831691505092915050565b60006115b9838361158f565b9150826002028217905092915050565b6115d282610da2565b67ffffffffffffffff8111156115eb576115ea61103b565b5b6115f58254611389565b61160082828561153c565b600060209050601f8311600181146116335760008415611621578287015190505b61162b85826115ad565b865550611693565b601f1984166116418661141d565b60005b8281101561166957848901518255600182019150602085019450602081019050611644565b868310156116865784890151611682601f89168261158f565b8355505b6001600288020188555050505b505050505050565b60006116a682610cf3565b91506116b183610cf3565b92508282039050818111156116c9576116c86113ba565b5b92915050565b60006060820190506116e46000830186610f0c565b6116f16020830185610cfd565b6116fe6040830184610cfd565b949350505050565b600060608201905081810360008301526117208186610f74565b905061172f6020830185610cfd565b61173c6040830184610cfd565b94935050505056fea264697066735822122020fa9a69dc6fa2190a697af0e522b999491a1d7c1204e702a4f9353bd0693d9364736f6c63430008110033",
  "linkReferences": {},
  "deployedLinkReferences": {}
}